:020000040800F2
:1028000008080020012900087B2C00080B2900087B
:10281000792C000849290008C92D00080000000093
:10282000000000000000000000000000BD2C0008B7
:102830004B290008000000007D2C0008752D0008C1
:102840001B2900081B2900081B2900081B29000858
:102850001B2900081B2900081B2900081B29000848
:102860001B2900081B2900081B2900081B29000838
:102870001B2900081B2900081B2900081B29000828
:102880001B2900081B2900081B2900081B29000818
:102890001B2900081B2900081B2900081B29000808
:1028A0001B2900081B2900081B2900081B290008F8
:1028B0001B2900081B290008000000001B29000834
:1028C0001B29000800000000000000001B29000870
:1028D000000000001B2900081B2900080000000060
:1028E0001B2900081B2900081B290008DFF80CD051
:1028F00000F018F800480047BD2E00080808002026
:102900000648804706480047FEE7FEE7FEE7FEE789
:10291000FEE7FEE7FEE7FEE7FEE7FEE7792D0008AB
:10292000ED280008064C074D06E0E06840F0010382
:1029300094E8070098471034AC42F6D3FFF7DAFF6B
:10294000182F0008382F0008FEE770474FF0E021ED
:102950000A6922F004020A610A6922F002020A618D
:102960000649C008087000EB4002C2EBC0104FF6E9
:10297000FF7202EAC000488070470000000000209B
:102980002DE9F04105460E46A80518D100F088F85B
:10299000342000F017F8002440F2014707E005EB6F
:1029A000842000F015F8042805D1641CA4B2B6FBFD
:1029B000F7F0A042F3D2BDE8F04100F03BB8BDE82B
:1029C000F08100000149C86070470000002002400B
:1029D00070B505464FF43026304600F06DF80428F7
:1029E00011D1094C206940F0020020616561206925
:1029F00040F040002061304600F05EF8216941F669
:102A0000FD721140216170BD002002400420084980
:102A1000CA68D20701D001207047CA68520701D5A1
:102A200002207047C968C906FBD503207047000023
:102A3000002002400248016941F0800101617047B5
:102A4000002002402DE9F84105460E460020009086
:102A50004FF40057384600F02FF804280FD10F4CE0
:102A6000206940F0010020612E80B846404600F009
:102A700023F8BF1E042804D0216939402161BDE834
:102A8000F881AD1C00950099300C0880404600F09C
:102A900013F8216939402161F1E70000002002406C
:102AA000034802494160034941607047230167457B
:102AB00000200240AB89EFCD00B50346FFF7A6FF2B
:102AC00002E0FFF7A3FF5B1E012801D1002BF8D124
:102AD000002B00D1052000BD2DE9F0410022CC786B
:102AE00004F00F03E40601D58C7823430C784FF0F3
:102AF0000F0714F0FF0F4FF0010C1CD005680CFA03
:102B000002F40E882640A64211D1960007FA06F874
:102B100025EA080503FA06F848EA0505CE78282EC6
:102B200002D0482E02D002E0446100E00461521C51
:102B3000082AE4D305600A88FF2A1ED945680022C6
:102B400002F108060CFA06F40E882640A64210D1BF
:102B5000960007FA06F825EA080503FA06F848EA97
:102B60000505CE78282E00D14461CE78482E00D1BC
:102B70000461521C082AE3D34560BDE8F0810000DF
:102B8000F0B5154C002801DAE36900E06368C0F392
:102B90000346420D120185B2C0F301579540032F41
:102BA00007D0C2020CD50322B240934343F07062B7
:102BB00009E023F07062636823F07063636002E0F1
:102BC000AB4343F0706201B12A43002801DAE261AD
:102BD000F0BD6260F0BD000000000140416170473F
:102BE0000161704708B50121042000F049F8032075
:102BF000ADF8000010218DF803108DF80200694631
:102C00000248FFF769FF002008BD000000080140EE
:102C100002494CF6CC40086070470000003000408C
:102C200010B545F2555000F021F840F6FF7000F065
:102C300017F8042000F00EF800F004F8FFF7E8FFA2
:102C4000002010BD02494AF6AA2008607047000023
:102C500000300040014948607047000000300040EB
:102C60000149886070470000003000400149086059
:102C70007047000000300040FEE7704770470000DA
:102C8000054A002903D09169014391617047916918
:102C900081439161704700000010024010B5064C5E
:102CA0008318A34207D8002303E0C45CCC545B1C08
:102CB0009BB29342F9D310BD00000408704700F0A6
:102CC00001B800000CB5002201920092274801686B
:102CD00041F4803101604FF4A063016801F40031D8
:102CE00000910199491C0191009911B901999942EA
:102CF000F3D10168890302D50121009100E000921F
:102D00000099012930D11A490A6842F010020A607C
:102D10000A6822F003020A600A6842F002020A60AE
:102D20004168416041684160416841F480614160AF
:102D3000416821F47C114160416841F4E81141602F
:102D4000016841F08071016001688901FCD541682A
:102D500021F003014160416841F002014160416896
:102D6000C1F381010229FAD10CBD0000001002401C
:102D7000002002407047000010B50F48016841F084
:102D80000101016041680D4A1140416001680C4A2F
:102D900011400160016821F480210160416821F443
:102DA000FE0141604FF41F018160FFF788FF054974
:102DB0004FF00060086010BD001002400000FFF8F6
:102DC000FFFFF6FE08ED00E0FEE700002DE9F04110
:102DD00004460D46A61812484FF0FF37864202D926
:102DE0003846BDE8F081FFF75BFE3420FFF7EAFDCF
:102DF0000FE020462968FFF725FE04280BD1206844
:102E00002968884203D0FFF715FE3846E9E7241DFC
:102E10002D1DB442EDD3FFF70DFE0020E1E70000C9
:102E20000000040802E008C8121F08C1002AFAD1F5
:102E300070477047002001E001C1121F002AFBD13A
:102E40007047000003490248086062B600F004B809
:102E50000028000808ED00E070B50B4D4FF48064C9
:102E6000224608492846FFF719FF21462846FFF762
:102E700087FD0449221F091D281DBDE87040FFF78A
:102E8000A5BF000004000020002400080A4949886A
:102E900041434FF0E020491E4161012181610169F8
:102EA00041F0010101610169C903FCD5016921F00B
:102EB000010101617047000000000020FFF7C2FF20
:102EC0004820FFF743FDFFF78DFE01211048FFF773
:102ED00057FEFFF7A5FE6420FFF7D8FF0D4C022137
:102EE0002046FFF77DFE01212046FFF777FE642094
:102EF000FFF7CCFF02212046FFF770FE012120469C
:102F0000FFF76EFE6420FFF7C1FFFFF79BFEE6E7C9
:102F10000002300000080140382F000800000020A7
:102F200004000000242E00083C2F000804000020AC
:0C2F300004080000342E0008000000001F
:04000005080028EDDA
:00000001FF
