:020000040800F2
:100000003011002021010008B70A00082B01000868
:10001000B50A00087B070008E90E00080000000090
:10002000000000000000000000000000F50B0008C8
:10003000D707000800000000370100083901000858
:100040003B0100083B0100083B0100083B010008A0
:100050003B0100083B0100083B0100083B01000890
:100060003B0100083B0100083B0100083B01000880
:100070003B0100083B0100083B0100083B01000870
:100080003B0100083B0100083B0100083B01000860
:100090003B0100083B0100083B0100083B01000850
:1000A0003B0100083B0100083B0100083B01000840
:1000B0003B0100083B010008000000003B01000874
:1000C0003B01000800000000000000003B010008A8
:1000D00000000000F10C00083B01000800000000D7
:1000E0003B0100083B0100083B010008DFF80CD091
:1000F00000F0D0FA00480047E91100083011002054
:10010000EFF30980704780F309887047EFF30880A8
:10011000704780F30888704740BA7047C0BA70478C
:100120000648804706480047FEE7FEE7FEE7FEE791
:10013000FEE7FEE7FEE7FEE7FEE7FEE7A10C0008AC
:10014000ED000008421C10F8011B0029FBD1801AA9
:100150007047034611F8012B00F8012B002AF9D152
:100160001846704770B5064600F0FAFE046805466A
:100170000A220021304600F0F7F92C6070BD2DE90D
:10018000FE4F804681EA0300C00F0C46009021F02C
:10019000004123F00045B8EB0200A94105D24046DA
:1001A000214690461C460B46024623F00040104371
:1001B00047D0270DC7F30A00C3F30A510290401A33
:1001C000019040286BDAC3F3130040F4801B0098C1
:1001D000924620B10023D2EB030A63EB0B0B01988C
:1001E0005946C0F14002504600F08DF906460D46D2
:1001F00050465946019A00F0A5F910EB08006141FC
:10020000002487EA115284EAE7731A4340D0009A27
:1002100062B3019A012A4FEA075215DC001B61EB19
:1002200002014FF0004202EA0752CDE90042001CF1
:1002300041F5801132462B4600F0DDF903B0BDE8F0
:10024000F08F40462146F9E7001B61EB0201001CDC
:1002500041F5801300185B412018A2F5001747EB09
:10026000030140EAD570B6196D4111E06D084FEAFF
:10027000360645EAC0754FEA0752001B61EB0201E2
:10028000001C41F5801149084FEA30000019514126
:1002900032462B4603B0BDE8F04F00F09DB9009800
:1002A000012240000023D0EB020263EBE0730098D0
:1002B00021464FEAE074B8EB000061EB0401E9E786
:1002C00083F000435BE781F0004158E72DE9FE4FE2
:1002D00081EA030404F0004421F0004100944FF04F
:1002E000000B23F0004350EA01045ED052EA0304FD
:1002F0005BD0C3F30A54C1F30A552C44A4F2F3347F
:100300000194A0FB0254C1F3130141F48011C3F323
:10031000130343F4801301FB024400FB034E840AE1
:10032000970A44EA815447EA8357A4FB0768029579
:100330008D0A05FB07854FEA932C04FB0C54270517
:10034000029D4FEA065847EA1637B5EB08056EEBF3
:10035000070C870E920E47EA811742EA8312A7FB29
:100360000201B6EB0B0164EB00042B0D43EA0C33E6
:100370005E1844EB1C50DA465146E7FB0201C5F318
:1003800013044FEA0B3343EA14534FEA0432019C3F
:1003900043EA0603A4F10C040294009CCDE900B4E6
:1003A00000F029F903B0BDE8F08F00200146F9E71D
:1003B0002DE9F04D81EA030404F0004B21F00045E3
:1003C00014464FF0000A23F0004150EA050220D005
:1003D00054EA01021DD0C5F30A570246C5F31303C0
:1003E000C1F31300C1F30A5640F4801543F480139F
:1003F000A7EB0608101BD64608F2FD3873EB050084
:1004000002D308F1010801E092185B41B8F1000F36
:1004100003DA00200146BDE8F08D00204FF4801182
:10042000064684460EE0171B73EB050705D3121B27
:1004300063EB050306434CEA010C49084FEA300020
:1004400092185B4150EA0107EDD152EA030012D045
:1004500082EA040083EA0501084305D0101BAB4182
:1004600006D20122002306E000224FF0004302E002
:100470006FF0010253101AEB06004CEB085110EB21
:100480000A0041EB0B01BDE8F04D00F0A5B80EB538
:1004900040F2334102910021CDE900110A460B469A
:1004A00000F0A9F803B000BDC1F30A5210B5C1F3C2
:1004B000130140F2FF3341F480119A4201DA002027
:1004C00010BD40F233439A42A2F2334203DC52425F
:1004D00000F028F810BD904010BD30B50B46014625
:1004E00000202022012409E021FA02F59D4205D3D3
:1004F00003FA02F5491B04FA02F52844151EA2F17D
:100500000102F1DC30BD202A04DB203A00FA02F1BE
:10051000002070479140C2F1200320FA03F31943F1
:1005200090407047202A04DB203A21FA02F0002193
:10053000704721FA02F3D040C2F1200291400843F3
:1005400019467047202A06DBCB17203A41FA02F001
:1005500043EAE07306E041FA02F3D040C2F1200220
:1005600091400843194670472DE9F04791460F46E0
:1005700080460446002614F8015B2DB100F09CF87B
:100580000068405DC007F6D12B2D02D02D2D18D06C
:10059000641E4A463946204600F092F827B1396871
:1005A000A14201D1C7F8008071054FF002040BD5BC
:1005B0004042002803DD00F0D3FC0460A007BDE842
:1005C000F08746F48066E4E70028F8DA00F0C8FC1B
:1005D00004606FF00040F2E710B5141E73F10004E0
:1005E00008DA401C41F1000192185B411A4301D125
:1005F00020F0010010BD2DE9F04D92469B4611B14F
:10060000B1FA81F202E0B0FA80F220329046FFF7B0
:100610007AFF04460F4640EA0A0041EA0B015346BE
:100620005A46084313D0114653EA010019D0C8F1C5
:1006300040025046FFF776FF05460E4650465946A3
:100640004246FFF760FF084305D0012004E0204642
:100650003946BDE8F08D0020054346EAE0762C439C
:1006600037430A986305E40AA0EB08000022FD0A5C
:1006700044EA47540A3002D500200146E9E7010563
:1006800010196941DDE9084500196941BDE8F04DDF
:10069000A2E70000064C074D06E0E06840F00103C9
:1006A00094E8070098471034AC42F6D3FFF722FDD8
:1006B000F01800081019000800487047EC180008EE
:1006C0002DE9F05F82460078002715468B460AF137
:1006D0000104B946302801D09DB113E014F8010B94
:1006E0000127782803D0582801D045B10AE00DB180
:1006F000102D07D10027102514F8010B02E0082562
:1007000000E00A250026B0460EE005FB080005FBC8
:1007100006F1012701EB10461FFA80F8B6F5803F7D
:1007200000D3B94614F8010B294600F018F8002848
:10073000EBDABBF1000F05D00FB1641E00E05446A8
:10074000CBF80040B9F1000F06D000F009FC0221FF
:100750000160C81EBDE8F09F48EA0640FAE73A2863
:1007600000D2303820F02002412A01D3A2F1370014
:10077000884201D34FF0FF307047FEE7002901683F
:1007800002D041F0010102E04FF6FE72114001601B
:100790007047406880B2704730B5036847F6F07222
:1007A00093430C6A8A682243D1E904452C432243CF
:1007B0008C692243CC6922434C6A22438C6A2243CF
:1007C0001A430260CA6842600A6882604968C16070
:1007D00030BD4160704770474FF0E0210A6922F058
:1007E00004020A610A6922F002020A610649C0088D
:1007F00000EB40020870C2EBC0104FF6FF7202EA35
:10080000C0004880704700000000002070B5054619
:100810000E46800515D100F07DF8342000F012F866
:10082000002407E005EB842000F012F8042804D12E
:10083000641CA4B2B4EB962FF4D9BDE8704000F06C
:1008400039B870BD0149C8607047000000200240FF
:1008500070B505464FF43026304600F067F804289E
:1008600011D1094C206940F00200206165612069C6
:1008700040F040002061304600F058F8216941F610
:10088000FD721140216170BD002002400849042022
:10089000CA68D20701D001207047CA68520701D543
:1008A00002207047C968C906FBD5032070470000C5
:1008B000002002400248016941F080010161704757
:1008C000002002402DE9F841064600204FF4005771
:1008D00000900D46384600F029F8042816D10C4C3B
:1008E000206940F0010020613580B846384600F0AC
:1008F0001DF8BF1E042806D1B61C280C00963080B7
:10090000404600F013F8216939402161BDE8F881C3
:10091000002002400348024941600349416070479A
:100920002301674500200240AB89EFCD00B50346A7
:10093000FFF7ACFF03E000BFFFF7A8FF5B1E012835
:1009400003D0002B00D1052000BD002BF4D1FAE725
:10095000F0B5CA78002502F00F03D20601D58A78D7
:1009600013430A784FF00F0E12F0FF0F4FF0010201
:100970001CD004680F8802FA05F63740B74211D13F
:100980004FEA850C0EFA0CF724EA070703FA0CF479
:100990003C43CF78282F02D0482F02D002E0466196
:1009A00000E006616D1C082DE4D304600C88FF2C68
:1009B0001ED944685FF0000606F1080702FA07F541
:1009C0000F882F40AF420FD14FEA860C0EFA0CF77A
:1009D000BC4303FA0CF73C43CF78282F00D1456184
:1009E000CF78482F00D10561761C082EE4D34460EF
:1009F000F0BD0000F0B5144C002801DAE36900E016
:100A00006368420D120185B2C0F301579540C0F3EF
:100A10000346032F05D0C2020AD50322B2409343F6
:100A200007E023F07062636823F07063636002E0A4
:100A3000AB4343F0706201B12A43002801DAE2615E
:100A4000F0BD6260F0BD00000000014002494CF6BC
:100A5000CC400860704700000030004010B545F2FF
:100A6000555000F021F840F6FF7000F017F8042010
:100A700000F00EF800F004F8FFF7E8FF002010BDCA
:100A800002494AF6AA200860704700000030004082
:100A9000014948607047000000300040014988600B
:100AA00070470000003000400149086070470000B6
:100AB00000300040FEE7704770B50F23C47801781E
:100AC0000122F4B1144C2468457804F4E064C4F5C0
:100AD000E064240AC4F10406E3408478B5401C4075
:100AE0002C4301F1E021230181F80034007800F06B
:100AF0001F018A404009800000F1E020C0F8002179
:100B000070BD01F01F0082404809800000F1E02024
:100B1000C0F8802170BD00000CED00E0044A0029FF
:100B2000516901D0014300E08143516170470000E9
:100B300000100240044A0029D16901D0014300E0BD
:100B40008143D1617047000000100240044A00292F
:100B5000916901D0014300E0814391617047000039
:100B60000010024030B51F494A6812F00C031E4ABB
:100B700003D0042B01D0082B21D002604A680F2338
:100B80001A4C03EA1212A35C0268DA4042604B6816
:100B9000072505EA1323E35C22FA03F383604B681D
:100BA00005EAD323E35CDA40C2604968032303EA21
:100BB0009131231F595CB2FBF1F1016130BD4A68EC
:100BC0004B6802F470124FF0020413F4803F04EB00
:100BD000924202D04B689B0301D5054B00E0024BCB
:100BE0005A43CAE70010024000127A0012000020A7
:100BF00000093D00704700000CB500212648019116
:100C00000091026842F4803202604FF4A0630268EF
:100C100002F400320092019A521C0192009A12B919
:100C2000019A9A42F3D10268920333D501210091CF
:100C30001A490A6842F010020A600A6822F00302A8
:100C40000A600A6842F002020A6041684160416835
:100C50004160416841F480614160416821F47C1148
:100C60004160416841F4E8114160016841F08071E0
:100C7000016001688901FCD5416821F003014160F0
:100C8000416841F0020141604168C1F381010229DC
:100C9000FAD10CBD00910CBD0010024000200240B2
:100CA0000F4810B5016841F00101016041680D4A2B
:100CB0001140416001680C4A11400160016821F453
:100CC00080210160416821F4FE0141604FF41F0161
:100CD0008160FFF791FF05494FF00060086010BD8B
:100CE000001002400000FFF8FFFFF6FE08ED00E0F4
:100CF00070B51E4E40F224452946304600F05EF89D
:100D0000002831D01A4C00212046FFF737FD002281
:100D10002946304600F071F8304600F0DDF8102129
:100D2000304600F029F82946304600F028F82046E1
:100D3000FFF72FFDA0F21A4041420E48C0F81C14E4
:100D400002D0012180F8201440F21A412046FFF71A
:100D500040FD01212046FFF711FD29463046BDE840
:100D60007040012200F049B870BD00000038014019
:100D70005800024034040020C943018070470A0A29
:100D800001219140C943018070470029818902D027
:100D900041F4005101E021F4005181817047002AA3
:100DA000828A01D00A4300E08A4382827047024669
:100DB000002012880A4200D00120704730B501F0AF
:100DC0001F0201240025C1F3421304FA02F2012B91
:100DD0000FD0022B0FD0838A4FEA112100881342D3
:100DE00004FA01F400EA040001D000B1012528460C
:100DF00030BD8389F0E7038AEEE710B5C1F34213F3
:100E000001F01F040121A140012B07D0022B07D0C4
:100E10001430002A026805D00A4304E00C30F8E7D9
:100E20001030F6E78A43026010BD000030B504467A
:100E3000008A85B00D464CF6FF710840E9880143F1
:100E40002182A1894EF6F3100140A8882A89104317
:100E50006A890A431043A081A08A4FF6FF410840E7
:100E6000A9890143A1826846FFF77CFE19488442A4
:100E700001D1039800E00298A189090400EBC001A8
:100E800001EB0010296801D5490000E08900B0FBA2
:100E9000F1F06422B0FBF2F109010B096FF01805C3
:100EA0006B4300EB8300A3891D044FF0320306D58A
:100EB00003EBC000B0FBF2F000F0070005E003EB2D
:100EC0000010B0FBF2F000F00F000843208105B0E5
:100ED00030BD0000003801408088C0F30800704732
:100EE000C1F3080181807047FEE700002DE9F04161
:100EF0000446861811480D464FF0FF37864202D946
:100F00003846BDE8F081FFF705FD3420FFF79AFC75
:100F10000BE020462968FFF7D5FC042807D120689C
:100F20002968884207D1241D2D1DB442F1D3FFF753
:100F3000C1FC0020E5E7FFF7BDFCE1E70080000809
:100F40000FB4054B10B503A9044A029800F01CF831
:100F500010BC5DF814FB0000C5110008240000203F
:100F6000004870472800002002E008C8121F08C18E
:100F7000002AFAD170477047002001E001C1121F1A
:100F8000002AFBD1704700002DE9FF4F8BB09A4635
:100F90000F460546002606E025280BD052460D993F
:100FA00090476D1C761C28780028F5D10FB030468C
:100FB000BDE8F08F0024A0460122604900E0044310
:100FC00015F8013F203B02FA03F00842F7D12878D8
:100FD0002E2817D115F8010F44F004042A280ED04A
:100FE0006FF02F022878A0F1300109290AD808EB08
:100FF000880102EB410100EB01086D1CF2E757F894
:10100000048B6D1C287869283ED006DC0028CDD0E2
:1010100063280BD0642804D136E0732810D07528DB
:101020004BD052460D999047761C85E017F8040B7B
:101030008DF8000000208DF80100E946012003E052
:1010400057F8049B4FF0FF3061074FF0000401D4C4
:101050000AE0641C44450DDA8442FADB19F80410F6
:101060000029F6D106E0641C8442FCDB19F8041068
:101070000029F8D1264404E019F8010B52460D99D5
:101080009047641EF8D257E001CF4FF00A0B0028BA
:1010900002DA40422D2102E0210504D52B218DF8F2
:1010A0002410012103E0E10705D02021F7E70DF12D
:1010B000200908910CE00021F9E701CF4FF00A0B5D
:1010C000F9E75946FFF709FA01F1300209F8012D55
:1010D0000028F6D1ADEB090000F1200B600701D428
:1010E0004FF00108D84502DDA8EB0B0000E000201E
:1010F0008046002406E009A85246005D0D999047FD
:10110000641C761C08988442F5DB04E030205246CB
:101110000D999047761CB8F10001A8F10108F5DCA3
:1011200005E019F8010B52460D999047761CBBF16A
:101130000001ABF1010BF4DC6D1C34E70928010060
:101140000B4810B501680B4A1140B1F1005F0DD199
:1011500072B60749091D0968074C61602160006883
:10116000FEF7D7FF2068BDE81040004710BD000023
:10117000002800080000FE2F04000020044800683A
:10118000A0F5B4415A3901D0FFF7DABF704700002B
:10119000002400080A49498841434FF0E020491ED5
:1011A000416101218161016941F001010161016930
:1011B000C903FCD5016921F00101016170470000FC
:1011C0000000002070B5074D0446C1B22846FFF765
:1011D00087FE80212846FFF7EAFD0028F9D0204647
:1011E00070BD0000004800408CB0FFF7C7FF4820EA
:1011F000FFF7F2FA01212E48FFF7FCFB4FF4E13133
:10120000022000F0C1F9684600F084FAFFF726FCDE
:10121000284E684600F08EFA20B19DF8040001289F
:101220000ED03CE024A0FFF78BFE29A004A9FFF715
:1012300087FE2CA00399FFF783FEFFF781FF2EE0C6
:101240000398FFF724F904460D460298FFF71FF9AB
:1012500000223346FFF73AF822462B46FFF7A8F85C
:1012600000223346FFF72FF8FFF71EF9C0B2B8424D
:1012700015D00298FFF70BF900223346FFF726F846
:1012800022462B46FFF794F800223346FFF71BF85F
:10129000FFF70AF9C7B2394617A0FFF751FE00F071
:1012A0000FFA0120FFF776FFFFF7EAFBB1E7000036
:1012B00000023000000059400D0A596D6F64656DE1
:1012C0002072656365697665204F4B210D0A000029
:1012D00066696C65206E616D653A222573220D0A80
:1012E0000000000066696C652073697A653A2564C0
:1012F000627974650D0A0000526563656976653A26
:1013000020256425250D0A0070B5C91C05460C462C
:101310000846FEF717FF0619214605F11000761C56
:10132000FEF717FF3046FEF71DFFE86070BD0000B6
:1013300070B50546012186B00846FFF7EFFB012195
:101340008803FFF703FC01210520FFF7FFFB4FF4A3
:101350000070ADF8100018208DF813003E4E0324E5
:101360008DF8124004A93046FFF7F2FA3015ADF8B7
:10137000100004208DF813008DF8124004A93046A7
:10138000FFF7E6FA00240095ADF808400C20334D35
:10139000ADF80440ADF80A00ADF80640ADF80C40D9
:1013A00069462846FFF742FD0122C0212846FFF783
:1013B000F6FC002240F226612846FFF71EFD0022BF
:1013C00040F225512846FFF718FD012240F2244142
:1013D0002846FFF712FD01212846FFF7D6FC4021E1
:1013E0002846FFF7C9FC25208DF8140002208DF84F
:1013F000150001208DF816008DF8170005A8FFF7DD
:101400005BFB17482B1D1021036081608021C0E920
:10141000044184614FF44052C461C0E908428462CF
:101420002C300360A0F6CC03C0E9013440F21A432B
:10143000C360C0E9044120218461C0E90741C0E9DB
:101440000924084C01462046FFF7A6F90121204651
:10145000FFF794F906B070BD000801400038014064
:10146000D40C00205800024030B5044687B001215A
:101470001120FFF76BFB01218804FFF75BFB0121C3
:101480000846FFF74BFB4FF48060ADF810001820C2
:101490008DF813000320384D8DF8120004A928465A
:1014A000FFF756FAE814ADF8100004208DF8130089
:1014B00004A92846FFF74CFA01213048FFF79AFAB1
:1014C00000940024ADF808400C202D4DADF80440E8
:1014D000ADF80A00ADF80640ADF80C406946284664
:1014E000FFF7A4FC0122C0212846FFF758FC002288
:1014F00040F226612846FFF780FC002240F2255189
:101500002846FFF77AFC012240F224412846FFF7E3
:1015100074FC01212846FFF738FC27208DF81400C1
:1015200002208DF8150001208DF816008DF81700A7
:1015300005A8FFF7C1FA13482B1D10210360816035
:101540008021C0E9044184614FF44052C461C0E984
:10155000084284622C300360A0F58A63C0E901343C
:1015600040F21A43C360C0E904418461C461C0E928
:101570000842846207B030BD001001401000140022
:10158000004800407C0C002070B500250A4C012862
:1015900009D0022806D10846FFF766FF84F84458B0
:1015A000C4F8405870BD0846FFF7C2FE84F82054C6
:1015B000C4F81C5470BD00003404002030B5030092
:1015C0004FF000001CD05B1EDBB203EBC30404EB46
:1015D00003240C4B03EB840393F82044002C0FD01E
:1015E000D3F81C04904200D910460022144603E0B0
:1015F0009D5C8D549C54521C8242F9D383F8204444
:1016000030BD0000340400202DE9F04703460020DF
:10161000924640F20547852901D0B94246D1DC1CEB
:101620004A1F96B2002241F2210C4FF6FF7912E0D8
:1016300014F8015B82EA05225FF008055FEA0248C0
:1016400003D58CEA420292B201E009EA42026D1E21
:101650002D042D0CF2D1761EB6B2E9D25C1814F826
:10166000025CB5EB122F1FD114F8014CD2B2A2428A
:101670001AD15A789B78DB43DBB29A4214D15FEAE5
:101680000A0207D0012A07D0BAF1020F00D10720C1
:10169000BDE8F0870220FBE7B94201D10320F7E75C
:1016A0008529F5D10420F3E70120F1E71978042911
:1016B00003D01829ECD10620EAE70520E8E700006E
:1016C00002480188491C0180704700000C0000207E
:1016D0004FF47A7102E0491E89B2FCD2401E80B2FA
:1016E000F9D2704789B2FFF791B80A460146012046
:1016F000FFF764BF7047000001460148FFF7F0BBE9
:101700000038014092B2FFF7F1BB4FF4E131012004
:10171000FFF73ABF10B50446FFF7F7FF002020712E
:10172000024921600249088010BD0000002800081D
:101730000C0000202DE9F04704464FF0FF3A40F23C
:1017400006414648FFF7D1FF454D10EA1A474FF0D2
:1017500000066DD0227939464048FFF755FF3F49D2
:10176000DFF800814FF00109082870D2DFE800F0AF
:101770006F5E0416354551550620FFF7BDFFFAB2DE
:1017800036492046FFF7C0FDC4F800804046E168B6
:10179000FFF7A8FFE068A060432019E0A2684FF4BB
:1017A00080639A420CD31A46C91C2068FFF7AAFF2F
:1017B000A068A0F58060A060206800F5806019E056
:1017C000C91C2068FFF79EFFC4F80080A66012E0E5
:1017D000FFF792FF84F8049039E0A268802AEFD3E3
:1017E0008022C91C2068FFF78DFFA0688038A060A8
:1017F0002068803020600620EAE70620FFF77CFFA3
:101800000A20FFF765FF4320FFF776FF02202071D3
:101810001DE02046FFF77EFF19E00620FFF76CFF72
:101820002046FFF777FF4FF0000A10E015200CE08C
:1018300020790028288804D042F210718842E8D824
:1018400006E0B0F57A7F03D94320FFF755FF2E80DD
:10185000FFF750FF5046BDE8F08700002C00002045
:101860000C0000200028000800404040404040405C
:101870004040414141414140404040404040404063
:101880004040404040404040400502020202020207
:101890000202020202020202022020202020202056
:1018A000202020020202020202029090909090906A
:1018B0001010101010101010101010101010101028
:1018C000101010100202020202028888888888889C
:1018D0000808080808080808080808080808080888
:1018E0000808080802020202400000006918000807
:1018F00010190008000000202C000000680F0008EC
:101900003C1900082C00002004110000780F00088A
:1019100000000000000000000000000000000204C1
:101920000608000000000102030401020304060788
:0C1930000809000000000000000000009A
:04000005080000ED02
:00000001FF
